:020000040000FA
:020000000528D1
:040002000034003492
:080008001B282C2083129F012C
:1000100070309F00831603139F010C178312031384
:100020008C011F149F148B170B17162800008312C6
:100030000313051016287520831203130C1B2320AD
:100040000C1379200900831203139F1808001E085F
:08005000870005149F1408004D
:0800580083160313F43081004C
:100060008312031300308B008316031300308C00BF
:100070008316031300308D008312031300309700A2
:10008000831203139D01831203170030890083122A
:100090000313003090008312031392010030831683
:1000A00003139200831603139F139F161F178312C7
:1000B0000313850183160313FE3085008312031397
:1000C000860183160313FF30860083160317103052
:1000D00089008316031300309500831203138701F0
:0A00E00083160313003087000800A8
:0600EA00A0000308A100C4
:0200F000080006
:0800F200A1088300A00808002A
:02400E00D120BF
:02401000FF3F70
:00000001FF
