:020000040000FA
:020000000528D1
:040002000034003492
:08000800D92806218312031719
:100010008E01831203178F0183120313A201A30120
:10002000A401A501A601A7010A30A7008B170B1791
:100030008B151A28831203138701533087008830E9
:100040008B002720303087002720A4011A28910137
:10005000810100000000000000000000000000001E
:100060000000000000000000000000000000000090
:100070000000000000000000810B2928910B2828B7
:10008000FC308100000000000000000000000000C3
:10009000810B4228080083128B135E3087002720D3
:1000A0000B30672183120313A200031125020319E9
:1000B0000800A601272026080311220203190800C0
:1000C000260867218312031387002720A60A5B28CE
:1000D000831203138B138B11233087006F28831235
:1000E00003132408031127020319F8280619F82816
:1000F000831203132408831203178D008312031342
:1001000086010616051C86283030CA28851C8A28D8
:100110003130CA28051D8E283230CA28851D922804
:100120003330CA2806128616051C98283430CA288F
:10013000851C9C283530CA28051DA0283630CA28C1
:10014000851DA4283730CA2886120617051CAA2840
:100150003830CA28851CAE283930CA28051DB22877
:100160004130CA28851DB6284230CA280613861792
:10017000051CBC284330CA28851CC0284430CA2826
:10018000051DC4284530CA28851DC8284630CA2800
:1001900086136828831203138700831203178C00C9
:1001A000831603178C13552183120313A40A2720E7
:1001B0006828831272218B130708A8001108A90070
:1001C0000108B0000B18F120831203138B012908DA
:1001D000910030088100280887008B178B15762145
:1001E0000900831203130618682086184B200800A4
:1001F000831203130B30831203178D008312031332
:0C0200002408831203178C00552108000D
:04020C00831603133F
:10021000F4308100831203138B0183160313013022
:100220008C008316031300308D00831203130030FB
:100230009700831203139D01831203170030890076
:1002400083120313003090008312031392010030D5
:10025000831603139200831603139F139F121F121A
:100260008316031788018312031385018316031372
:10027000FF308500831203138601831603130F30AA
:10028000860083160313033096008316031700308D
:10029000890083160313003095008312031387012E
:0A02A00083160313003087000800E6
:0602AA0083128B13831682
:1002B00003178C130C1555308D00AA308D008C144B
:0E02C0008C1860290C11831203130D12080014
:0202CE00831299
:1002D00003178D00831603178C130C148312031756
:0402E0000C080800FE
:0802E400A0000308A1000800BE
:0402EC002108830062
:0402F00020080800DA
:02400E00D120BF
:02401000FF3F70
:00000001FF
