:020000040000FA
:100000000128831603138101F43081008312031346
:1000100040308B008316031300308C0083160313CB
:1000200000308D00831203130030970083120313F6
:100030009D018312031700308900831203130030DF
:100040009000831203139201003083160313920071
:10005000831603139F139F161F1783120313850123
:1000600083160313FE308500831203138601831663
:100070000313FF30860083160317003089008316B0
:1000800003130030950083120313870183160313B3
:10009000003087004B288312031387010716061AC6
:1000A0007528861A7928061B7D28861B8128071249
:1000B0008716061A8528861A8928061B8D28861B0E
:1000C0009128871207179528861A9928061B9D28BC
:1000D000861BA1288717061AA528861AA928061B99
:1000E000AD28861BB12887134E28A1010030A1003E
:1000F000B520A1010130A100B520A1010230A1006D
:10010000B520A1010330A100B520A1010430A10058
:10011000B520A1010530A100B520A1010630A10044
:10012000B520A1010730A100B520A1010830A10030
:10013000B520A1010930A100B520A1010A30A1001C
:10014000B520A1010B30A100B520A1010C30A10008
:10015000B520A1010D30A100B520A1010E30A100F4
:10016000B520A1010F30A100B52001308700C220C9
:100170000130060687008500C22001300606870090
:1001800085004E282108D620910081010000000042
:100190000000810BC628910BC5282108E7208100AB
:1001A000000000000000810BD028080082070734FF
:1001B0000734073406340634053405340534043472
:1001C0000434043404340334013401340134820728
:1001D000E734A5340A34A5344534EB348A34463444
:1001E000FA34B2346F342F34F23442342E340B34B8
:0401F00000340034A3
:02400E00D120BF
:02401000FF3F70
:00000001FF
