:020000040000FA
:10000000012883160313F430810083120313403058
:100010008B008316031300308C008316031300300B
:100020008D008312031300309700831203139D0188
:1000300083120317003089008312031300309000ED
:100040008312031392010030831603139200831668
:1000500003139F139F161F17831203138501831623
:100060000313FE30850083120313860183160313E6
:10007000FF308600831603170030890083160313B0
:100080000030950083120313870183160313003099
:1000900087004A288312031387010716061A74285B
:1000A000861A7828061B7C28861B8028071287164C
:1000B000061A8428861A8828061B8C28861B9028F6
:1000C000871207179428861A9828061B9C28861BD7
:1000D000A0288717061AA428861AA828061BAC2869
:1000E000861BB02887134D28A1010030A100B42041
:1000F000A1010130A100B420A1010230A100B4206F
:10010000A1010330A100B420A1010430A100B4205A
:10011000A1010530A100B420A1010630A100B42046
:10012000A1010730A100B420A1010830A100B42032
:10013000A1010930A100B420A1010A30A100B4201E
:10014000A1010B30A100B420A1010C30A100B4200A
:10015000A1010D30A100B420A1010E30A100B420F6
:10016000A1010F30A100B42001308700C12001306F
:10017000060687008500C12001300606870085003D
:100180004D282108D52091008101000000000000C9
:10019000810BC528910BC4282108E62081000000AE
:1001A00000000000810BCF280800820707340734C5
:1001B0000734063406340534053405340434043475
:1001C0000434043403340134013401348207E73445
:1001D000A5340A34A5344534EB348A344634FA3431
:0E01E000B2346F342F34F23442342E340B34E8
:0201EE000034DB
:0201F0000034D9
:02400E00D120BF
:02401000FF3F70
:00000001FF
