:020000040000FA
:1000000001288316031301108110011181110116BB
:10001000811201178117831203138B110B128B129C
:100020000B178B13831603130C108C100C118C11EF
:100030000C128C120C138C13831603138D130D13D7
:100040008D120D128D110D118D100D1083120313D1
:100050008D130D138D120D128D110D118D100D10AC
:1000600083120313003097008312031700308900B6
:1000700083120313003090008312031392010030A7
:10008000831603139200831603139F139F161F17E3
:1000900083120313850183160313FF308500831237
:1000A0000313860183160313F030860083160317AB
:1000B0000030890083160313003095008312031368
:1000C000870183160313003087006628000083121F
:1000D00003132330870003016D2883120313860165
:1000E0000614061A9928861A9F28061BA528861B1F
:1000F000AB2806108614061AB128861AB728061BE4
:10010000BD28861BC32886100615061AC928861A1C
:10011000CF28061BD528861BDB2806118615061A54
:10012000E128861AE728061BED28861BF32886118E
:100130006628030130308312031387006D28030102
:1001400031308312031387006D280301323083128C
:10015000031387006D2803013330831203138700D4
:100160006D28030134308312031387006D280301C7
:1001700035308312031387006D2803013630831254
:10018000031387006D2803013730831203138700A0
:100190006D28030138308312031387006D28030193
:1001A00039308312031387006D2803014130831215
:1001B000031387006D280301423083120313870065
:1001C0006D28030143308312031387006D28030158
:1001D00044308312031387006D28030145308312D6
:1001E000031387006D280301463083120313870031
:0201F0006D2878
:0401F20000340034A1
:02400E00D120BF
:02401000FF3F70
:00000001FF
