:020000040000FA
:10000000012883160313F03081008312031340305C
:100010008B008316031300308C008316031380308B
:100020008D008312031300309700831203170030F2
:10003000890083120313003090008312031392018E
:100040000030831603139200831603139F139F1629
:100050001F1783120313850183160313FE308500D7
:1000600083120313860183160313FF308600831661
:1000700003170030890083160313003095008312A4
:100080000313870183160313003087004728831268
:1000900003130130870051200130060687008500D8
:1000A0004B2851309100000000000000910B5328B4
:0800B000000000000000080040
:0400B80000340034DC
:02400E00D120BF
:02401000FF3F70
:00000001FF
