:020000040000FA
:10000000012883160313F03081008312031340305C
:100010008B008316031300308C008316031380308B
:100020008D008312031300309700831203170030F2
:10003000890083120313003090008312031392018E
:100040000030831603139200831603139F139F1629
:100050001F1783120313850183160313FF308500D6
:100060008312031386018316031300308600831660
:1000700003170030890083160313003095008312A4
:100080000313870183160313003087004728831268
:10009000031330308600F33091008101000000002E
:1000A000000000000000810B4E28910B4D28EA3023
:1000B00081000000000000000000810B592835304D
:1000C00086009100F33091008101000000000000E3
:1000D00000000000810B6528910B6428EA30810044
:1000E0000000000000000000810B702800000000EC
:0400F000000047289D
:0400F40000340034A0
:02400E00D120BF
:02401000FF3F70
:00000001FF
