:020000040000FA
:020000000528D1
:040002000034003492
:08000800612876208312031326
:100010000C3087001020A401A3010E2800000E2838
:1000200083128B01920183168C019201FF309200A2
:1000300083128C0191015D207A30920083160313A4
:100040008C1483120313C8308B001215080083121E
:1000500003130310A30A22082307031832208C106D
:10006000C820090083120313A301031007193F28B6
:1000700087184728871A4C28071A54280800A418FC
:100080004328241854280A308700592008002130BA
:100090008700A4015D20080024185028A4184728D0
:1000A00011308700592008000C308700A4015D2022
:1000B0000800A201F030A2000800A201B330A200A3
:1000C0000800C420831203138C1827280B186A28F1
:1000D000C8200900831203138B0106182414871704
:0C00E0008618A414C8308B00C82009004A
:0400EC008316031361
:1000F000F43081008312031300308B008316031346
:1001000000308C008316031300308D00831203131C
:1001100000309700831203139D01831203170030F0
:10012000890083120313003090008312031392019D
:100130000030831603139200831603139F139F1638
:100140001F1783120313850183160313FF308500E5
:1001500083120313860183160313FF308600831670
:1001600003170030890083160313003095008316AF
:10017000031396010330960083120313870183163D
:080180000313003087000800A2
:08018800A0000308A10008001B
:08019000A1088300A00808008B
:02400E00D120BF
:02401000FF3F70
:00000001FF
