:020000040000FA
:020000001628C0
:040002000034003492
:080008002B2882073234383442
:100010003F3445344B34513458345E3464346A349C
:10002000713477347D3484348B3493347720831265
:100030009F0170309F00831603139F011F164330EA
:100040008C00831203138C011F149F148B170B1742
:10005000292800002928C020831203130C1B3620F6
:100060008C185A200C186920C42009008B010C132D
:100070001F109F101E08A200A20E2212A21222130D
:10008000A2130311A5015328250805208316031385
:1000900092008312031391010230920012158B1704
:1000A0000B17071408002508220203194428A50A83
:1000B00003115328831203138B01121107108C10A4
:1000C0009001B1308F00E3308E0010148B170B17A6
:1000D0000800831203138B0110100C109E0183166D
:0E00E0009E0183121F149F148B170B1708002C
:0200EE00831677
:1000F0000313F43081008312031300308B00831646
:10010000031301308C008316031300308D0083121B
:10011000031300309700831203139D01831203170A
:100120000030890083120313003090008312031300
:1001300092010030831603139200831603139F135A
:100140009F161F1783120313850183160313FE30B6
:10015000850083120313860183160313FF30860084
:10016000831603171030890083160313003095009F
:1001700083120313870183160313003087000800DE
:08018000A0000308A100080023
:08018800A1088300A008080093
:02400E00D120BF
:02401000FF3F70
:00000001FF
