:020000040000FA
:08000000803102288731FB2F3B
:100F38008731A52787318731C52787319F2F803192
:100F48000228210099171917991619129915991439
:100F580022008C01F03021008C0020008C0123003D
:100F68008C018E0121008E01303020008E0021007E
:100F780091019201250093019A01200098019C019A
:100F8800080020000C1411308C003030F4000030C0
:100F9800F5002330F4000030F5008C0120008C149B
:100FA80012308C003430F4000030F5002330F400A7
:100FB8000030F5008C0120000C1513308C003830FF
:100FC800F4000030F5002330F4000030F5008C0107
:100FD80020008C1512308C004330F4000030F500EE
:100FE8002330F4000030F5008C01C52F0800F4010F
:080FF800F501200087319C2F58
:020000040001F9
:04000E00FC29FF1FAB
:00000001FF
