:020000040000FA
:08000000803102288731FB2F3B
:100F12007008F20072080800F000700820008E00CD
:100F220008008731A52787318731C527873178089F
:100F3200F1007708F00087318927873187318D27C3
:100F42008731952F80310228210099171917991698
:100F520019129915991422008C01F03021008C008D
:100F620020008C0123008C018E0121008E01303083
:100F720020008E00210091019201250093019A0127
:100F8200200098019C01080020000C1411308C00F4
:100F92003030F7000030F8002330F7000030F8005E
:100FA2008C0120008C1412308C003430F700003099
:100FB200F8002330F7000030F8008C0120000C15F7
:100FC20013308C003830F7000030F8002330F7007F
:100FD2000030F8008C0120008C1512308C00433058
:100FE200F7000030F8002330F7000030F8008C01E1
:0E0FF200C52F0800F701F80120008731922F6B
:020000040001F9
:04000E00FC29FF1FAB
:00000001FF
