:020000040000FA
:08000000803102288731FB2F3B
:100E22007008F20072080800F000700820008E00BE
:100E3200080087312D27873187314D278731780880
:100E4200F1007708F00087311127873187311527A4
:100E520087311D2F80310228210099171917991601
:100E620019129915991422008C01F03021008C007E
:100E720020008C0123008C018E0121008E01233081
:100E820020008E00210091019201250093019A0118
:100E9200200098019C0108008C0120000C140C1EFB
:100EA200532F542F592F3030F7000030F800FA2F0B
:100EB2008C1E5C2F5D2F622F3130F7000030F8005E
:100EC200FA2F0C1F652F662F6B2F3230F700003080
:100ED200F800FA2F8C1F6E2F6F2F742F3330F7000C
:100EE2000030F800FA2F2330F7000030F8008C01B0
:100EF20020008C140C1E7E2F7F2F842F3430F7009D
:100F02000030F800FA2F8C1E872F882F8D2F353056
:100F1200F7000030F800FA2F0C1F902F912F962F18
:100F22003630F7000030F800FA2F8C1F992F9A2FD5
:100F32009F2F3730F7000030F800FA2F2330F700E8
:100F42000030F8008C0120000C150C1EA92FAA2FCE
:100F5200AF2F3830F7000030F800FA2F8C1EB22F76
:100F6200B32FB82F3930F7000030F800FA2F0C1FDA
:100F7200BB2FBC2FC12F4130F7000030F800FA2FF1
:100F82008C1FC42FC52FCA2F4230F7000030F80043
:100F9200FA2F2330F7000030F8008C0120008C1566
:100FA2000C1ED42FD52FDA2F4330F7000030F80073
:100FB200FA2F8C1EDD2FDE2FE32F4430F700003096
:100FC200F800FA2F0C1FE62FE72FEC2F4530F70021
:100FD2000030F800FA2F8C1FEF2FF02FF52F46303C
:100FE200F7000030F800FA2F2330F7000030F80045
:0E0FF2008C010800F701F801200087311A2F4A
:020000040001F9
:04000E00FC29FF1FAB
:00000001FF
