:020000040000FA
:10000000012883160313F430810083120313403058
:100010008B008316031300308C008316031300300B
:100020008D008312031300309700831203139D0188
:1000300083120317003089008312031300309000ED
:100040008312031392010030831603139200831668
:1000500003139F139F161F17831203138501831623
:100060000313FE30850083120313860183160313E6
:10007000FF308600831603170030890083160313B0
:100080000030950083120313870183160313003099
:1000900087004A288312031387010716061A762859
:1000A000861A7A28061B7E28861B82280712871646
:1000B000061A8628861A8A28061B8E28861B9228EE
:1000C00087120717061A9628861A9A28061B9E2852
:1000D000861BA22807138717061AA628861AAA289D
:1000E000061BAE28861BB22887134D28A1010030BD
:1000F000A100B628A1010130A100B628A10102305B
:10010000A100B628A1010330A100B628A101043046
:10011000A100B628A1010530A100B628A101063032
:10012000A100B628A1010730A100B628A10108301E
:10013000A100B628A1010930A100B628A1010A300A
:10014000A100B628A1010B30A100B628A1010C30F6
:10015000A100B628A1010D30A100B628A1010E30E2
:10016000A100B628A1010F30A100B62801308700F8
:10017000C3200130060687008500C3200130060633
:10018000870085004D282108D12091008101810B35
:10019000C728910BC6282108E2208100810BCE28B8
:1001A0000800820704340434033403340334023473
:1001B0000234023402340134013401340134013494
:1001C000013401348207F9346334F134AC344334FC
:1001D000E83496346D342934EC34CF349A346B34AB
:0601E00042342E340B3402
:0401E60000340034AD
:02400E00D120BF
:02401000FF3F70
:00000001FF
