:020000040000FA
:020000000528D1
:040002000034003492
:08000800442849200728831257
:10001000031331308700072883120313373087001A
:10002000DF309100810100000000000000000000AE
:1000300000000000000000000000000000000000C0
:1000400000000000000000000000000000000000B0
:1000500000000000000000000000000000000000A0
:100060000000000000000000810B1328910B1228F3
:10007000FC308100000000000000000000000000D3
:10008000810B3A280B100900831203130B180C285C
:02009000090065
:0E00920083160313F43081008316031300302D
:1000A0008C008316031300308D008312031300307D
:1000B0009700831203139D018312031700308900F8
:1000C0008312031300309000831203139201003057
:1000D000831603139200831603139F139F161F1793
:1000E00083120313850183160313FF3085008312E7
:1000F0000313860183160313FF308600831603174C
:100100000030890083160313003095008316031313
:100110000130960083120313870183160313003006
:0C01200087008312031388308B00080056
:02400E00D120BF
:02401000FF3F70
:00000001FF
