:020000040000FA
:020000000528D1
:040002000034003492
:08000800612821006930990014
:1000100021009A1A0928952121009D01B0309D00E8
:10002000210010309E0021009F0121001117911125
:10003000911411142000B2018B170B170B149B2085
:10004000212800002128270096012000311A32289B
:1000500021009111111721001D149D14200031164B
:100060000E15080021009115111321001D109D107F
:10007000200031120E110800200049088C3C031C9E
:10008000492849086E3C031856286430B3007B2089
:1000900008004908F03C031C5328B30032303302F7
:1000A000031C532847283230B300472849086E3CC8
:1000B000643EB300963C031C5E2847289630B3008C
:1000C000472820008B018E14E8212000911D6A280A
:1000D000522131142000111B9120200091188520FD
:1000E000200011189B2020008B170B170B14EC21FC
:1000F00020008E100900200033089B0020009A0188
:1001000002309C001C150E14080020008B011C11ED
:100110000E1091109801B1309700E330960018143A
:1001200008002000111321001D109D1021001C0843
:100130002000C9003C2820001810111021009C014B
:0C01400021009B0121001D149D140800EB
:04014C0021008E15EB
:100150000E16240027309200240028309500240039
:10016000003096002400283097002400A03094002E
:10017000080021008E150E16240010309200240075
:100180003630950024000930960024002030970076
:100190002400403094002000C601080048212400BB
:1001A00016141618D12820004008240091002400BD
:1001B0001418D72848212400161B42292000420881
:1001C0002400910024001418E22848212400161B62
:1001D00042292000451CF6282000430824009100F5
:1001E00024001118F0282400161B4229240016159B
:1001F0001619F82800300800482124001614161893
:10020000FF2820004008240091002400141805292C
:1002100048212400161B4229200091112000420889
:100220002400910024001418122948212400161BD0
:10023000422948212400161416181C292000911167
:10024000200041082400910024001418242948218A
:100250002400161B42292400961520009111240029
:1002600011084821240096161616161A352924005E
:1002700096112400161516193B2924001108200098
:10028000C40008002400161516194429FF30080080
:1002900024001F3096052000031D4829240014194E
:1002A0004E290800240015122400941A5C29240009
:1002B00011082000C60190292000003046022000CD
:1002C00003197529200001304602200003197A29FC
:1002D000200002304602200003197F29200003304D
:1002E00046022000031984299029240011082000C7
:1002F000C8008E29240011082000C9008E2924007E
:1003000011082000D0008E29240011082000D100FF
:10031000200047142000970196018E292000C60A6C
:0A03200024001516200091110800BA
:06032A002100F4309500F3
:100330002000C0308B0021000030910021000030EF
:10034000920025000030930025009A012200003021
:10035000940020000030980020009C010030200014
:100360009B0021009E139E161E1620008C01230068
:1003700000308C0021000E308C00270091012700F6
:10038000920192142700930120008D0121000F306B
:100390008D00230001308D00240000308D002700E7
:1003A00094012700950025008D0126008D01200075
:1003B0008E01230000308E002100F8308E002700CF
:1003C00097012700980127009D0127009E01080042
:0803D000A0000308A1000800D1
:0803D800210883002008080041
:020000040001F9
:02000E00A4212B
:02001000FF1FD0
:00000001FF
