:020000040000FA
:020000000528D1
:040002000034003492
:080008000D288E200728831249
:10001000031331308700A501072883120313DB2067
:100020000B1814280B100900831203138B010618F8
:1000300021288618422888308B00A1088300A00858
:1000400009002518252037304F280108A400110881
:10005000A3002208A6003630A70008008B01071C69
:100060003C288312031324088100230891002608EA
:10007000A2002708870008008316031396010330A7
:100080009600080083160313960101309600831230
:100090000313A501251488308B0036304F288312B6
:1000A00003138700DF309100810100000000000091
:1000B0000000000000000000000000000000000040
:1000C0000000000000000000000000000000000030
:1000D0000000000000000000000000000000000020
:1000E000000000000000000000000000810B552807
:1000F000910B5428FC30A20000000000000000001A
:1001000000000000A20B7C288312031325182E2068
:0C0110008312031388308B00DF200900ED
:04011C008316031330
:10012000F43081008316031300308C008316031310
:1001300000308D00831203130030970083120313E5
:100140009D018312031700308900831203130030CE
:100150009000831203139201003083160313920060
:10016000831603139F139F161F1783120313850112
:1001700083160313FF308500831203138601831651
:100180000313FF308600831603170030890083169F
:100190000313003095008316031303309600831277
:1001A00003138701831603130030870083120313A0
:0601B00088308B000800FE
:0801B600A0000308A1000800ED
:0201BE00210816
:0601C00083002008080086
:02400E00D120BF
:02401000FF3F70
:00000001FF
