:020000040000FA
:020000000528D1
:040002000034003492
:08000800302983160313F430C4
:10001000810083120313C0308B0083160313013059
:100020008C008316031300308D00831203130030FD
:100030009700831203139D01831203170030890078
:1000400083120313003090008312031392010030D7
:10005000831603139200831603139F139F161F1713
:1000600083120313850183160313FE308500831268
:100070000313860183160313FF30860083160317CC
:100080000030890083160313003095008312031398
:10009000870183160313003087004E288312031351
:1000A00087010716061A7A28861A7E28061B8228D8
:1000B000861B862807128716061A8A28861A8E2813
:1000C000061B9228861B962887120717061A9A285D
:1000D000861A9E28061BA228861BA62807138717A8
:1000E000061AAA28861AAE28061BB228861BB6282E
:1000F00087135128A1010030A100B728A1010130C8
:10010000A100B728A1010230A100B728A101033046
:10011000A100B728A1010430A100B728A101053032
:10012000A100B728A1010630A100B728A10107301E
:10013000A100B728A1010830A100B728A10109300A
:10014000A100B728A1010A30A100B728A1010B30F6
:10015000A100B728A1010C30A100B728A1010D30E2
:10016000A100B728A1010E30A100B728DF28013077
:100170008700C4200130060687008500C4200130B6
:100180000606870085005128210808219100810179
:10019000810BC828910BC72821081C218100810BE5
:1001A000CF28080001308700C420013006068700F0
:1001B0008500C4200130060687008500D2288312FE
:1001C0000313D8308E00831203130B308F00831279
:1001D000031335309000831203130430A200F0287B
:1001E00083120313D8308E00831203130B308F0059
:1001F00083120313A10A2208A105A1190029B72817
:100200008312031300309000831203130C100900B3
:1002100082070434043403340334033402340234D4
:100220000234023401340134013401340134013424
:1002300001340134013401348207F9346334F13478
:10024000AC344334E83496346D342934EC34CF3450
:100250009A346B3442342E340B340034003400347E
:0A026000831203130C18F028512834
:02400E00D120BF
:02401000FF3F70
:00000001FF
